{
  "contractName": "HashStorage",
  "abi": [
    {
      "anonymous": false,
      "inputs": [
        {
          "indexed": false,
          "internalType": "string",
          "name": "hash",
          "type": "string"
        }
      ],
      "name": "HashStored",
      "type": "event"
    },
    {
      "inputs": [
        {
          "internalType": "string",
          "name": "hash",
          "type": "string"
        }
      ],
      "name": "storeHash",
      "outputs": [],
      "stateMutability": "nonpayable",
      "type": "function"
    },
    {
      "inputs": [
        {
          "internalType": "string",
          "name": "hash",
          "type": "string"
        }
      ],
      "name": "checkHash",
      "outputs": [
        {
          "internalType": "bool",
          "name": "",
          "type": "bool"
        }
      ],
      "stateMutability": "view",
      "type": "function",
      "constant": true
    }
  ],
  "bytecode": "0x608060405234801561001057600080fd5b50610510806100206000396000f3fe608060405234801561001057600080fd5b50600436106100365760003560e01c806371dc61cb1461003b578063e670f7cd14610057575b600080fd5b610055600480360381019061005091906102f2565b610087565b005b610071600480360381019061006c91906102f2565b610164565b60405161007e9190610356565b60405180910390f35b60008160405161009791906103eb565b908152602001604051809103902060009054906101000a900460ff16156100f3576040517f08c379a00000000000000000000000000000000000000000000000000000000081526004016100ea9061045f565b60405180910390fd5b600160008260405161010591906103eb565b908152602001604051809103902060006101000a81548160ff0219169083151502179055507fc11dc30fab9e1049e39849c934756251850c71b749c0dff181b2a28074fca60e8160405161015991906104b8565b60405180910390a150565b6000808260405161017591906103eb565b908152602001604051809103902060009054906101000a900460ff169050919050565b6000604051905090565b600080fd5b600080fd5b600080fd5b600080fd5b6000601f19601f8301169050919050565b7f4e487b7100000000000000000000000000000000000000000000000000000000600052604160045260246000fd5b6101ff826101b6565b810181811067ffffffffffffffff8211171561021e5761021d6101c7565b5b80604052505050565b6000610231610198565b905061023d82826101f6565b919050565b600067ffffffffffffffff82111561025d5761025c6101c7565b5b610266826101b6565b9050602081019050919050565b82818337600083830152505050565b600061029561029084610242565b610227565b9050828152602081018484840111156102b1576102b06101b1565b5b6102bc848285610273565b509392505050565b600082601f8301126102d9576102d86101ac565b5b81356102e9848260208601610282565b91505092915050565b600060208284031215610308576103076101a2565b5b600082013567ffffffffffffffff811115610326576103256101a7565b5b610332848285016102c4565b91505092915050565b60008115159050919050565b6103508161033b565b82525050565b600060208201905061036b6000830184610347565b92915050565b600081519050919050565b600081905092915050565b60005b838110156103a557808201518184015260208101905061038a565b838111156103b4576000848401525b50505050565b60006103c582610371565b6103cf818561037c565b93506103df818560208601610387565b80840191505092915050565b60006103f782846103ba565b915081905092915050565b600082825260208201905092915050565b7f4861736820616c72656164792065786973747300000000000000000000000000600082015250565b6000610449601383610402565b915061045482610413565b602082019050919050565b600060208201905081810360008301526104788161043c565b9050919050565b600061048a82610371565b6104948185610402565b93506104a4818560208601610387565b6104ad816101b6565b840191505092915050565b600060208201905081810360008301526104d2818461047f565b90509291505056fea2646970667358221220ff828de6ce06bd7fafdac1fe07eef84e23e539f152c1ef09c25fed441c48ee4964736f6c634300080d0033",
  "immutableReferences": {},
  "source": "// File: HashStorage.sol\n// SPDX-License-Identifier: MIT\npragma solidity ^0.8.13;\n\ncontract HashStorage {\n    mapping(string => bool) private storedHashes;\n\n    event HashStored(string hash);\n\n    function storeHash(string memory hash) public {\n        require(!storedHashes[hash], \"Hash already exists\");\n        storedHashes[hash] = true;\n        emit HashStored(hash);\n    }\n\n    function checkHash(string memory hash) public view returns (bool) {\n        return storedHashes[hash];\n    }\n}\n",
  "sourcePath": "/Users/apple/Projects/practice_make_better/laravel/docs_verification/hash-storage/contracts/HashStorage.sol",
  "compiler": {
    "name": "solc",
    "version": "0.8.13+commit.abaa5c0e.Emscripten.clang"
  },
  "schemaVersion": "3.4.16",
  "updatedAt": "2025-10-01T13:40:43.757Z",
  "networkType": "ethereum",
  "devdoc": {
    "kind": "dev",
    "methods": {},
    "version": 1
  },
  "userdoc": {
    "kind": "user",
    "methods": {},
    "version": 1
  }
}